{
  "contractName": "expenseChain",
  "abi": [
    {
      "inputs": [],
      "payable": false,
      "stateMutability": "nonpayable",
      "type": "constructor"
    },
    {
      "anonymous": false,
      "inputs": [
        {
          "indexed": false,
          "internalType": "uint32",
          "name": "productId",
          "type": "uint32"
        }
      ],
      "name": "TransferOwnership",
      "type": "event"
    },
    {
      "constant": true,
      "inputs": [
        {
          "internalType": "uint32",
          "name": "",
          "type": "uint32"
        }
      ],
      "name": "exp",
      "outputs": [
        {
          "internalType": "string",
          "name": "name",
          "type": "string"
        },
        {
          "internalType": "string",
          "name": "expense_purpose",
          "type": "string"
        },
        {
          "internalType": "address",
          "name": "expense_Owner",
          "type": "address"
        },
        {
          "internalType": "uint32",
          "name": "cost",
          "type": "uint32"
        },
        {
          "internalType": "uint32",
          "name": "mfgTimeStamp",
          "type": "uint32"
        }
      ],
      "payable": false,
      "stateMutability": "view",
      "type": "function"
    },
    {
      "constant": true,
      "inputs": [
        {
          "internalType": "uint32",
          "name": "",
          "type": "uint32"
        },
        {
          "internalType": "uint256",
          "name": "",
          "type": "uint256"
        }
      ],
      "name": "expenseTrack",
      "outputs": [
        {
          "internalType": "uint32",
          "name": "",
          "type": "uint32"
        }
      ],
      "payable": false,
      "stateMutability": "view",
      "type": "function"
    },
    {
      "constant": true,
      "inputs": [],
      "name": "expense_id",
      "outputs": [
        {
          "internalType": "uint32",
          "name": "",
          "type": "uint32"
        }
      ],
      "payable": false,
      "stateMutability": "view",
      "type": "function"
    },
    {
      "constant": true,
      "inputs": [],
      "name": "participant_id",
      "outputs": [
        {
          "internalType": "uint32",
          "name": "",
          "type": "uint32"
        }
      ],
      "payable": false,
      "stateMutability": "view",
      "type": "function"
    },
    {
      "constant": true,
      "inputs": [
        {
          "internalType": "uint32",
          "name": "",
          "type": "uint32"
        }
      ],
      "name": "participants",
      "outputs": [
        {
          "internalType": "string",
          "name": "userName",
          "type": "string"
        },
        {
          "internalType": "string",
          "name": "password",
          "type": "string"
        },
        {
          "internalType": "string",
          "name": "participantType",
          "type": "string"
        },
        {
          "internalType": "address",
          "name": "participantAddress",
          "type": "address"
        },
        {
          "internalType": "bool",
          "name": "rights",
          "type": "bool"
        }
      ],
      "payable": false,
      "stateMutability": "view",
      "type": "function"
    },
    {
      "constant": false,
      "inputs": [
        {
          "internalType": "uint32",
          "name": "owId",
          "type": "uint32"
        },
        {
          "internalType": "uint32",
          "name": "userId",
          "type": "uint32"
        }
      ],
      "name": "giveRights",
      "outputs": [
        {
          "internalType": "bool",
          "name": "",
          "type": "bool"
        }
      ],
      "payable": false,
      "stateMutability": "nonpayable",
      "type": "function"
    },
    {
      "constant": false,
      "inputs": [
        {
          "internalType": "uint32",
          "name": "owId",
          "type": "uint32"
        },
        {
          "internalType": "uint32",
          "name": "userId",
          "type": "uint32"
        }
      ],
      "name": "revokeRights",
      "outputs": [
        {
          "internalType": "bool",
          "name": "",
          "type": "bool"
        }
      ],
      "payable": false,
      "stateMutability": "nonpayable",
      "type": "function"
    },
    {
      "constant": false,
      "inputs": [
        {
          "internalType": "string",
          "name": "_name",
          "type": "string"
        },
        {
          "internalType": "string",
          "name": "_pass",
          "type": "string"
        },
        {
          "internalType": "address",
          "name": "_pAdd",
          "type": "address"
        },
        {
          "internalType": "string",
          "name": "_pType",
          "type": "string"
        }
      ],
      "name": "addParticipant",
      "outputs": [
        {
          "internalType": "uint32",
          "name": "",
          "type": "uint32"
        }
      ],
      "payable": false,
      "stateMutability": "nonpayable",
      "type": "function"
    },
    {
      "constant": true,
      "inputs": [
        {
          "internalType": "uint32",
          "name": "_participant_id",
          "type": "uint32"
        }
      ],
      "name": "getParticipant",
      "outputs": [
        {
          "internalType": "string",
          "name": "",
          "type": "string"
        },
        {
          "internalType": "address",
          "name": "",
          "type": "address"
        },
        {
          "internalType": "string",
          "name": "",
          "type": "string"
        }
      ],
      "payable": false,
      "stateMutability": "view",
      "type": "function"
    },
    {
      "constant": false,
      "inputs": [
        {
          "internalType": "uint32",
          "name": "_ownerId",
          "type": "uint32"
        },
        {
          "internalType": "string",
          "name": "_name",
          "type": "string"
        },
        {
          "internalType": "string",
          "name": "_purpose",
          "type": "string"
        },
        {
          "internalType": "uint32",
          "name": "_Cost",
          "type": "uint32"
        }
      ],
      "name": "addExpense",
      "outputs": [
        {
          "internalType": "uint32",
          "name": "",
          "type": "uint32"
        }
      ],
      "payable": false,
      "stateMutability": "nonpayable",
      "type": "function"
    },
    {
      "constant": true,
      "inputs": [
        {
          "internalType": "uint32",
          "name": "_expId",
          "type": "uint32"
        }
      ],
      "name": "getExpense",
      "outputs": [
        {
          "internalType": "string",
          "name": "",
          "type": "string"
        },
        {
          "internalType": "string",
          "name": "",
          "type": "string"
        },
        {
          "internalType": "uint32",
          "name": "",
          "type": "uint32"
        },
        {
          "internalType": "address",
          "name": "",
          "type": "address"
        },
        {
          "internalType": "uint32",
          "name": "",
          "type": "uint32"
        }
      ],
      "payable": false,
      "stateMutability": "view",
      "type": "function"
    },
    {
      "constant": true,
      "inputs": [
        {
          "internalType": "uint32",
          "name": "par",
          "type": "uint32"
        }
      ],
      "name": "getProvenance",
      "outputs": [
        {
          "internalType": "uint32[]",
          "name": "",
          "type": "uint32[]"
        }
      ],
      "payable": false,
      "stateMutability": "view",
      "type": "function"
    },
    {
      "constant": true,
      "inputs": [
        {
          "internalType": "uint32",
          "name": "_uid",
          "type": "uint32"
        },
        {
          "internalType": "string",
          "name": "_uname",
          "type": "string"
        },
        {
          "internalType": "string",
          "name": "_pass",
          "type": "string"
        },
        {
          "internalType": "string",
          "name": "_utype",
          "type": "string"
        }
      ],
      "name": "authenticateParticipant",
      "outputs": [
        {
          "internalType": "bool",
          "name": "",
          "type": "bool"
        }
      ],
      "payable": false,
      "stateMutability": "view",
      "type": "function"
    }
  ],
  "bytecode": "0x608060405260008060006101000a81548163ffffffff021916908363ffffffff16021790555060008060046101000a81548163ffffffff021916908363ffffffff1602179055503480156200005357600080fd5b506000600481819054906101000a900463ffffffff168092919060010191906101000a81548163ffffffff021916908363ffffffff160217905550506040518060400160405280600581526020017f41646d696e000000000000000000000000000000000000000000000000000000815250600260008060049054906101000a900463ffffffff1663ffffffff1663ffffffff16815260200190815260200160002060000190805190602001906200010d929190620002d0565b506040518060400160405280600e81526020017f41646d696e2050617373776f7264000000000000000000000000000000000000815250600260008060049054906101000a900463ffffffff1663ffffffff1663ffffffff16815260200190815260200160002060010190805190602001906200018c929190620002d0565b506040518060400160405280600581526020017f41646d696e000000000000000000000000000000000000000000000000000000815250600260008060049054906101000a900463ffffffff1663ffffffff1663ffffffff16815260200190815260200160002060020190805190602001906200020b929190620002d0565b5033600260008060049054906101000a900463ffffffff1663ffffffff1663ffffffff16815260200190815260200160002060030160006101000a81548173ffffffffffffffffffffffffffffffffffffffff021916908373ffffffffffffffffffffffffffffffffffffffff1602179055506001600260008060049054906101000a900463ffffffff1663ffffffff1663ffffffff16815260200190815260200160002060030160146101000a81548160ff0219169083151502179055506200037f565b828054600181600116156101000203166002900490600052602060002090601f016020900481019282601f106200031357805160ff191683800117855562000344565b8280016001018555821562000344579182015b828111156200034357825182559160200191906001019062000326565b5b50905062000353919062000357565b5090565b6200037c91905b80821115620003785760008160009055506001016200035e565b5090565b90565b612173806200038f6000396000f3fe608060405234801561001057600080fd5b50600436106100cf5760003560e01c8063a343dea11161008c578063c856956511610066578063c856956514610a18578063ebf43a7e14610aa1578063fb7c865514610cca578063fc2da91014610e5c576100cf565b8063a343dea1146107ec578063a8f42e191461095e578063c56d0e6c146109bc576100cf565b806306700bfd146100d45780633b26a65d146100fe57806351e2d6d81461024a578063524b8394146103bc578063721b5743146104185780637d0a9ac914610629575b600080fd5b6100dc610e86565b604051808263ffffffff1663ffffffff16815260200191505060405180910390f35b6101306004803603602081101561011457600080fd5b81019080803563ffffffff169060200190929190505050610e9b565b60405180806020018473ffffffffffffffffffffffffffffffffffffffff1673ffffffffffffffffffffffffffffffffffffffff16815260200180602001838103835286818151815260200191508051906020019080838360005b838110156101a657808201518184015260208101905061018b565b50505050905090810190601f1680156101d35780820380516001836020036101000a031916815260200191505b50838103825284818151815260200191508051906020019080838360005b8381101561020c5780820151818401526020810190506101f1565b50505050905090810190601f1680156102395780820380516001836020036101000a031916815260200191505b509550505050505060405180910390f35b61027c6004803603602081101561026057600080fd5b81019080803563ffffffff16906020019092919050505061106d565b6040518080602001806020018663ffffffff1663ffffffff1681526020018573ffffffffffffffffffffffffffffffffffffffff1673ffffffffffffffffffffffffffffffffffffffff1681526020018463ffffffff1663ffffffff168152602001838103835288818151815260200191508051906020019080838360005b838110156103165780820151818401526020810190506102fb565b50505050905090810190601f1680156103435780820380516001836020036101000a031916815260200191505b50838103825287818151815260200191508051906020019080838360005b8381101561037c578082015181840152602081019050610361565b50505050905090810190601f1680156103a95780820380516001836020036101000a031916815260200191505b5097505050505050505060405180910390f35b6103fe600480360360408110156103d257600080fd5b81019080803563ffffffff169060200190929190803563ffffffff1690602001909291905050506112ad565b604051808215151515815260200191505060405180910390f35b61060f6004803603608081101561042e57600080fd5b81019080803563ffffffff1690602001909291908035906020019064010000000081111561045b57600080fd5b82018360208201111561046d57600080fd5b8035906020019184600183028401116401000000008311171561048f57600080fd5b91908080601f016020809104026020016040519081016040528093929190818152602001838380828437600081840152601f19601f820116905080830192505050505050509192919290803590602001906401000000008111156104f257600080fd5b82018360208201111561050457600080fd5b8035906020019184600183028401116401000000008311171561052657600080fd5b91908080601f016020809104026020016040519081016040528093929190818152602001838380828437600081840152601f19601f8201169050808301925050505050505091929192908035906020019064010000000081111561058957600080fd5b82018360208201111561059b57600080fd5b803590602001918460018302840111640100000000831117156105bd57600080fd5b91908080601f016020809104026020016040519081016040528093929190818152602001838380828437600081840152601f19601f820116905080830192505050505050509192919290505050611332565b604051808215151515815260200191505060405180910390f35b61065b6004803603602081101561063f57600080fd5b81019080803563ffffffff169060200190929190505050611685565b604051808060200180602001806020018673ffffffffffffffffffffffffffffffffffffffff1673ffffffffffffffffffffffffffffffffffffffff16815260200185151515158152602001848103845289818151815260200191508051906020019080838360005b838110156106df5780820151818401526020810190506106c4565b50505050905090810190601f16801561070c5780820380516001836020036101000a031916815260200191505b50848103835288818151815260200191508051906020019080838360005b8381101561074557808201518184015260208101905061072a565b50505050905090810190601f1680156107725780820380516001836020036101000a031916815260200191505b50848103825287818151815260200191508051906020019080838360005b838110156107ab578082015181840152602081019050610790565b50505050905090810190601f1680156107d85780820380516001836020036101000a031916815260200191505b509850505050505050505060405180910390f35b61081e6004803603602081101561080257600080fd5b81019080803563ffffffff1690602001909291905050506118b0565b6040518080602001806020018673ffffffffffffffffffffffffffffffffffffffff1673ffffffffffffffffffffffffffffffffffffffff1681526020018563ffffffff1663ffffffff1681526020018463ffffffff1663ffffffff168152602001838103835288818151815260200191508051906020019080838360005b838110156108b857808201518184015260208101905061089d565b50505050905090810190601f1680156108e55780820380516001836020036101000a031916815260200191505b50838103825287818151815260200191508051906020019080838360005b8381101561091e578082015181840152602081019050610903565b50505050905090810190601f16801561094b5780820380516001836020036101000a031916815260200191505b5097505050505050505060405180910390f35b61099a6004803603604081101561097457600080fd5b81019080803563ffffffff16906020019092919080359060200190929190505050611a56565b604051808263ffffffff1663ffffffff16815260200191505060405180910390f35b6109fe600480360360408110156109d257600080fd5b81019080803563ffffffff169060200190929190803563ffffffff169060200190929190505050611a9c565b604051808215151515815260200191505060405180910390f35b610a4a60048036036020811015610a2e57600080fd5b81019080803563ffffffff169060200190929190505050611b21565b6040518080602001828103825283818151815260200191508051906020019060200280838360005b83811015610a8d578082015181840152602081019050610a72565b505050509050019250505060405180910390f35b610ca860048036036080811015610ab757600080fd5b8101908080359060200190640100000000811115610ad457600080fd5b820183602082011115610ae657600080fd5b80359060200191846001830284011164010000000083111715610b0857600080fd5b91908080601f016020809104026020016040519081016040528093929190818152602001838380828437600081840152601f19601f82011690508083019250505050505050919291929080359060200190640100000000811115610b6b57600080fd5b820183602082011115610b7d57600080fd5b80359060200191846001830284011164010000000083111715610b9f57600080fd5b91908080601f016020809104026020016040519081016040528093929190818152602001838380828437600081840152601f19601f820116905080830192505050505050509192919290803573ffffffffffffffffffffffffffffffffffffffff16906020019092919080359060200190640100000000811115610c2257600080fd5b820183602082011115610c3457600080fd5b80359060200191846001830284011164010000000083111715610c5657600080fd5b91908080601f016020809104026020016040519081016040528093929190818152602001838380828437600081840152601f19601f820116905080830192505050505050509192919290505050611c5c565b604051808263ffffffff1663ffffffff16815260200191505060405180910390f35b610e3a60048036036080811015610ce057600080fd5b81019080803563ffffffff16906020019092919080359060200190640100000000811115610d0d57600080fd5b820183602082011115610d1f57600080fd5b80359060200191846001830284011164010000000083111715610d4157600080fd5b91908080601f016020809104026020016040519081016040528093929190818152602001838380828437600081840152601f19601f82011690508083019250505050505050919291929080359060200190640100000000811115610da457600080fd5b820183602082011115610db657600080fd5b80359060200191846001830284011164010000000083111715610dd857600080fd5b91908080601f016020809104026020016040519081016040528093929190818152602001838380828437600081840152601f19601f820116905080830192505050505050509192919290803563ffffffff169060200190929190505050611da8565b604051808263ffffffff1663ffffffff16815260200191505060405180910390f35b610e64612083565b604051808263ffffffff1663ffffffff16815260200191505060405180910390f35b6000809054906101000a900463ffffffff1681565b606060006060600260008563ffffffff1663ffffffff168152602001908152602001600020600001600260008663ffffffff1663ffffffff16815260200190815260200160002060030160009054906101000a900473ffffffffffffffffffffffffffffffffffffffff16600260008763ffffffff1663ffffffff168152602001908152602001600020600201828054600181600116156101000203166002900480601f016020809104026020016040519081016040528092919081815260200182805460018160011615610100020316600290048015610fbd5780601f10610f9257610100808354040283529160200191610fbd565b820191906000526020600020905b815481529060010190602001808311610fa057829003601f168201915b50505050509250808054600181600116156101000203166002900480601f0160208091040260200160405190810160405280929190818152602001828054600181600116156101000203166002900480156110595780601f1061102e57610100808354040283529160200191611059565b820191906000526020600020905b81548152906001019060200180831161103c57829003601f168201915b505050505090509250925092509193909250565b6060806000806000600160008763ffffffff1663ffffffff168152602001908152602001600020600001600160008863ffffffff1663ffffffff168152602001908152602001600020600101600160008963ffffffff1663ffffffff16815260200190815260200160002060020160149054906101000a900463ffffffff16600160008a63ffffffff1663ffffffff16815260200190815260200160002060020160009054906101000a900473ffffffffffffffffffffffffffffffffffffffff16600160008b63ffffffff1663ffffffff16815260200190815260200160002060020160189054906101000a900463ffffffff16848054600181600116156101000203166002900480601f0160208091040260200160405190810160405280929190818152602001828054600181600116156101000203166002900480156111f75780601f106111cc576101008083540402835291602001916111f7565b820191906000526020600020905b8154815290600101906020018083116111da57829003601f168201915b50505050509450838054600181600116156101000203166002900480601f0160208091040260200160405190810160405280929190818152602001828054600181600116156101000203166002900480156112935780601f1061126857610100808354040283529160200191611293565b820191906000526020600020905b81548152906001019060200180831161127657829003601f168201915b505050505093509450945094509450945091939590929450565b60008260011515600260008363ffffffff1663ffffffff16815260200190815260200160002060030160149054906101000a900460ff161515146112f057600080fd5b6001600260008563ffffffff1663ffffffff16815260200190815260200160002060030160146101000a81548160ff0219169083151502179055505092915050565b6000816040516020018082805190602001908083835b6020831061136b5780518252602082019150602081019050602083039250611348565b6001836020036101000a03801982511681845116808217855250505050505090500191505060405160208183030381529060405280519060200120600260008763ffffffff1663ffffffff16815260200190815260200160002060020160405160200180828054600181600116156101000203166002900480156114265780601f10611404576101008083540402835291820191611426565b820191906000526020600020905b815481529060010190602001808311611412575b505091505060405160208183030381529060405280519060200120141561167857836040516020018082805190602001908083835b6020831061147e578051825260208201915060208101905060208303925061145b565b6001836020036101000a03801982511681845116808217855250505050505090500191505060405160208183030381529060405280519060200120600260008763ffffffff1663ffffffff16815260200190815260200160002060000160405160200180828054600181600116156101000203166002900480156115395780601f10611517576101008083540402835291820191611539565b820191906000526020600020905b815481529060010190602001808311611525575b505091505060405160208183030381529060405280519060200120141561167757826040516020018082805190602001908083835b60208310611591578051825260208201915060208101905060208303925061156e565b6001836020036101000a03801982511681845116808217855250505050505090500191505060405160208183030381529060405280519060200120600260008763ffffffff1663ffffffff168152602001908152602001600020600101604051602001808280546001816001161561010002031660029004801561164c5780601f1061162a57610100808354040283529182019161164c565b820191906000526020600020905b815481529060010190602001808311611638575b5050915050604051602081830303815290604052805190602001201415611676576001905061167d565b5b5b600090505b949350505050565b6002602052806000526040600020600091509050806000018054600181600116156101000203166002900480601f0160208091040260200160405190810160405280929190818152602001828054600181600116156101000203166002900480156117315780601f1061170657610100808354040283529160200191611731565b820191906000526020600020905b81548152906001019060200180831161171457829003601f168201915b505050505090806001018054600181600116156101000203166002900480601f0160208091040260200160405190810160405280929190818152602001828054600181600116156101000203166002900480156117cf5780601f106117a4576101008083540402835291602001916117cf565b820191906000526020600020905b8154815290600101906020018083116117b257829003601f168201915b505050505090806002018054600181600116156101000203166002900480601f01602080910402602001604051908101604052809291908181526020018280546001816001161561010002031660029004801561186d5780601f106118425761010080835404028352916020019161186d565b820191906000526020600020905b81548152906001019060200180831161185057829003601f168201915b5050505050908060030160009054906101000a900473ffffffffffffffffffffffffffffffffffffffff16908060030160149054906101000a900460ff16905085565b6001602052806000526040600020600091509050806000018054600181600116156101000203166002900480601f01602080910402602001604051908101604052809291908181526020018280546001816001161561010002031660029004801561195c5780601f106119315761010080835404028352916020019161195c565b820191906000526020600020905b81548152906001019060200180831161193f57829003601f168201915b505050505090806001018054600181600116156101000203166002900480601f0160208091040260200160405190810160405280929190818152602001828054600181600116156101000203166002900480156119fa5780601f106119cf576101008083540402835291602001916119fa565b820191906000526020600020905b8154815290600101906020018083116119dd57829003601f168201915b5050505050908060020160009054906101000a900473ffffffffffffffffffffffffffffffffffffffff16908060020160149054906101000a900463ffffffff16908060020160189054906101000a900463ffffffff16905085565b60036020528160005260406000208181548110611a6f57fe5b9060005260206000209060089182820401919006600402915091509054906101000a900463ffffffff1681565b60008260011515600260008363ffffffff1663ffffffff16815260200190815260200160002060030160149054906101000a900460ff16151514611adf57600080fd5b6000600260008563ffffffff1663ffffffff16815260200190815260200160002060030160146101000a81548160ff0219169083151502179055505092915050565b6060600160405160200180821515151560f81b815260010191505060405160208183030381529060405280519060200120600260008463ffffffff1663ffffffff16815260200190815260200160002060030160149054906101000a900460ff1660405160200180821515151560f81b8152600101915050604051602081830303815290604052805190602001201415611c5657600360008363ffffffff1663ffffffff168152602001908152602001600020805480602002602001604051908101604052809291908181526020018280548015611c4a57602002820191906000526020600020906000905b82829054906101000a900463ffffffff1663ffffffff1681526020019060040190602082600301049283019260010382029150808411611c0d5790505b50505050509050611c57565b5b919050565b6000806000600481819054906101000a900463ffffffff1660010191906101000a81548163ffffffff021916908363ffffffff1602179055905085600260008363ffffffff1663ffffffff1681526020019081526020016000206000019080519060200190611ccc929190612099565b5084600260008363ffffffff1663ffffffff1681526020019081526020016000206001019080519060200190611d03929190612099565b5083600260008363ffffffff1663ffffffff16815260200190815260200160002060030160006101000a81548173ffffffffffffffffffffffffffffffffffffffff021916908373ffffffffffffffffffffffffffffffffffffffff16021790555082600260008363ffffffff1663ffffffff1681526020019081526020016000206002019080519060200190611d9b929190612099565b5080915050949350505050565b6000600160405160200180821515151560f81b815260010191505060405160208183030381529060405280519060200120600260008763ffffffff1663ffffffff16815260200190815260200160002060030160149054906101000a900460ff1660405160200180821515151560f81b815260010191505060405160208183030381529060405280519060200120141561207757600080600081819054906101000a900463ffffffff1660010191906101000a81548163ffffffff021916908363ffffffff1602179055905084600160008363ffffffff1663ffffffff1681526020019081526020016000206000019080519060200190611eaa929190612099565b5083600160008363ffffffff1663ffffffff1681526020019081526020016000206001019080519060200190611ee1929190612099565b5082600160008363ffffffff1663ffffffff16815260200190815260200160002060020160146101000a81548163ffffffff021916908363ffffffff160217905550600260008763ffffffff1663ffffffff16815260200190815260200160002060030160009054906101000a900473ffffffffffffffffffffffffffffffffffffffff16600160008363ffffffff1663ffffffff16815260200190815260200160002060020160006101000a81548173ffffffffffffffffffffffffffffffffffffffff021916908373ffffffffffffffffffffffffffffffffffffffff16021790555042600160008363ffffffff1663ffffffff16815260200190815260200160002060020160186101000a81548163ffffffff021916908363ffffffff160217905550600360008763ffffffff1663ffffffff16815260200190815260200160002081908060018154018082558091505090600182039060005260206000209060089182820401919006600402909192909190916101000a81548163ffffffff021916908363ffffffff16021790555050505b60009050949350505050565b600060049054906101000a900463ffffffff1681565b828054600181600116156101000203166002900490600052602060002090601f016020900481019282601f106120da57805160ff1916838001178555612108565b82800160010185558215612108579182015b828111156121075782518255916020019190600101906120ec565b5b5090506121159190612119565b5090565b61213b91905b8082111561213757600081600090555060010161211f565b5090565b9056fea265627a7a723158207fc71a2b8cb45d8f8e94c3bee56eb8224f3272fab8f0931a567a34cfb7fe22b164736f6c63430005100032",
  "source": "pragma solidity >=0.4.21 <0.6.0;\r\n\r\ncontract expenseChain {\r\n   \r\n    uint32 public expense_id = 0; // Product ID\r\n    uint32 public participant_id = 0; // Participant ID\r\n   \r\n   \r\n    constructor() public{\r\n        participant_id++;\r\n        participants[participant_id].userName=\"Admin\";\r\n        participants[participant_id].password=\"Admin Password\";\r\n        participants[participant_id].participantType=\"Admin\";\r\n        participants[participant_id].participantAddress=msg.sender;\r\n        participants[participant_id].rights=true;\r\n    }\r\n   \r\n    modifier onlyOwner(uint32 userId){\r\n        require(participants[userId].rights==true);\r\n        _;\r\n    }\r\n\r\n    struct expense {\r\n        string name;\r\n        string expense_purpose;\r\n        address expense_Owner;\r\n        uint32 cost;\r\n        uint32 mfgTimeStamp;\r\n    }\r\n   \r\n    mapping(uint32 => expense) public exp;\r\n   \r\n    struct participant {\r\n        string userName;\r\n        string password;\r\n        string participantType;\r\n        address participantAddress;\r\n        bool rights;\r\n    }\r\n   \r\n    mapping(uint32 => participant) public participants;\r\n    mapping(uint32 => uint32[]) public expenseTrack; \r\n    event TransferOwnership(uint32 productId);\r\n   \r\n    function giveRights(uint32 owId,uint32 userId) public onlyOwner(owId) returns(bool){\r\n        participants[userId].rights=true;\r\n    }\r\n\r\n    function revokeRights(uint32 owId,uint32 userId) public onlyOwner(owId) returns(bool){\r\n            participants[userId].rights=false;\r\n    }\r\n   \r\n    function addParticipant(string memory _name, string memory _pass, address _pAdd, string memory _pType) public returns (uint32){\r\n        uint32 userId = ++participant_id;\r\n        participants[userId].userName = _name;\r\n        participants[userId].password = _pass;\r\n        participants[userId].participantAddress = _pAdd;\r\n        participants[userId].participantType = _pType;\r\n        return userId;\r\n    }\r\n   \r\n    function getParticipant(uint32 _participant_id) public view returns (string memory,address,string memory) {\r\n        return (participants[_participant_id].userName,\r\n        participants[_participant_id].participantAddress,\r\n        participants[_participant_id].participantType);\r\n    }\r\n   \r\n    function addExpense(uint32 _ownerId,string memory _name, string memory _purpose, uint32 _Cost) public returns (uint32) {\r\n        if(keccak256(abi.encodePacked(participants[_ownerId].rights)) == keccak256(abi.encodePacked(true))) {\r\n            uint32 expId = ++expense_id;\r\n            exp[expId].name = _name;\r\n            exp[expId].expense_purpose = _purpose;\r\n            exp[expId].cost = _Cost;\r\n            exp[expId].expense_Owner = participants[_ownerId].participantAddress;\r\n            exp[expId].mfgTimeStamp = uint32(now);\r\n            expenseTrack[_ownerId].push(expId);\r\n        }\r\n        return 0;\r\n    }\r\n\r\n   \r\n    function getExpense(uint32 _expId) public view returns (string memory,string memory,uint32,address,uint32){\r\n        return (exp[_expId].name,\r\n        exp[_expId].expense_purpose,\r\n        exp[_expId].cost,\r\n        exp[_expId].expense_Owner,\r\n        exp[_expId].mfgTimeStamp);\r\n    }\r\n    \r\n    function getProvenance(uint32 par) external view returns (uint32[] memory) {\r\n        if(keccak256(abi.encodePacked(participants[par].rights)) == keccak256(abi.encodePacked(true))){\r\n            return expenseTrack[par];\r\n        }\r\n}\r\n\r\n\r\n   \r\n    function authenticateParticipant(uint32 _uid, string memory _uname,string memory _pass, string memory _utype) public view returns (bool){\r\n        if(keccak256(abi.encodePacked(participants[_uid].participantType)) == keccak256(abi.encodePacked(_utype))) {\r\n            if(keccak256(abi.encodePacked(participants[_uid].userName)) == keccak256(abi.encodePacked(_uname))) {\r\n                if(keccak256(abi.encodePacked(participants[_uid].password)) == keccak256(abi.encodePacked(_pass))) {\r\n                    return (true);\r\n                }\r\n            }\r\n        }\r\n        return (false);\r\n    }\r\n}\r\n\r\n",
  "sourcePath": "C:/blockchain/audits/contracts/audits.sol",
  "compiler": {
    "name": "solc",
    "version": "0.5.16+commit.9c3226ce.Emscripten.clang"
  },
  "schemaVersion": "3.2.3",
  "updatedAt": "2020-08-13T09:06:39.485Z",
  "networkType": "ethereum",
  "devdoc": {
    "methods": {}
  },
  "userdoc": {
    "methods": {}
  }
}